{
  "contractName": "TODO",
  "abi": [
    {
      "anonymous": false,
      "inputs": [
        {
          "indexed": false,
          "internalType": "uint256",
          "name": "id",
          "type": "uint256"
        },
        {
          "indexed": false,
          "internalType": "string",
          "name": "text",
          "type": "string"
        },
        {
          "indexed": false,
          "internalType": "uint256",
          "name": "date",
          "type": "uint256"
        },
        {
          "indexed": false,
          "internalType": "address",
          "name": "author",
          "type": "address"
        },
        {
          "indexed": false,
          "internalType": "bool",
          "name": "done",
          "type": "bool"
        }
      ],
      "name": "TodoCreated",
      "type": "event"
    },
    {
      "anonymous": false,
      "inputs": [
        {
          "indexed": false,
          "internalType": "uint256",
          "name": "id",
          "type": "uint256"
        },
        {
          "indexed": false,
          "internalType": "string",
          "name": "text",
          "type": "string"
        },
        {
          "indexed": false,
          "internalType": "uint256",
          "name": "date",
          "type": "uint256"
        },
        {
          "indexed": false,
          "internalType": "address",
          "name": "author",
          "type": "address"
        },
        {
          "indexed": false,
          "internalType": "bool",
          "name": "done",
          "type": "bool"
        }
      ],
      "name": "TodoDone",
      "type": "event"
    },
    {
      "inputs": [],
      "name": "TodoCount",
      "outputs": [
        {
          "internalType": "uint256",
          "name": "",
          "type": "uint256"
        }
      ],
      "stateMutability": "view",
      "type": "function",
      "constant": true
    },
    {
      "inputs": [],
      "name": "name",
      "outputs": [
        {
          "internalType": "string",
          "name": "",
          "type": "string"
        }
      ],
      "stateMutability": "view",
      "type": "function",
      "constant": true
    },
    {
      "inputs": [
        {
          "internalType": "uint256",
          "name": "",
          "type": "uint256"
        }
      ],
      "name": "todos",
      "outputs": [
        {
          "internalType": "uint256",
          "name": "id",
          "type": "uint256"
        },
        {
          "internalType": "string",
          "name": "text",
          "type": "string"
        },
        {
          "internalType": "uint256",
          "name": "date",
          "type": "uint256"
        },
        {
          "internalType": "address",
          "name": "author",
          "type": "address"
        },
        {
          "internalType": "bool",
          "name": "done",
          "type": "bool"
        }
      ],
      "stateMutability": "view",
      "type": "function",
      "constant": true
    },
    {
      "inputs": [
        {
          "internalType": "string",
          "name": "_text",
          "type": "string"
        }
      ],
      "name": "createTodo",
      "outputs": [],
      "stateMutability": "nonpayable",
      "type": "function"
    },
    {
      "inputs": [
        {
          "internalType": "uint256",
          "name": "_id",
          "type": "uint256"
        }
      ],
      "name": "completeTask",
      "outputs": [],
      "stateMutability": "nonpayable",
      "type": "function"
    },
    {
      "inputs": [
        {
          "internalType": "uint256",
          "name": "_id",
          "type": "uint256"
        },
        {
          "internalType": "string",
          "name": "_text",
          "type": "string"
        }
      ],
      "name": "editTodo",
      "outputs": [],
      "stateMutability": "nonpayable",
      "type": "function"
    }
  ],
  "bytecode": "0x60806040526040518060400160405280601681526020017f446563656e7472616c697a656420546f646f204170700000000000000000000081525060009080519060200190620000519291906200006a565b50600180553480156200006357600080fd5b506200017f565b828054620000789062000149565b90600052602060002090601f0160209004810192826200009c5760008555620000e8565b82601f10620000b757805160ff1916838001178555620000e8565b82800160010185558215620000e8579182015b82811115620000e7578251825591602001919060010190620000ca565b5b509050620000f79190620000fb565b5090565b5b8082111562000116576000816000905550600101620000fc565b5090565b7f4e487b7100000000000000000000000000000000000000000000000000000000600052602260045260246000fd5b600060028204905060018216806200016257607f821691505b602082108114156200017957620001786200011a565b5b50919050565b610e24806200018f6000396000f3fe608060405234801561001057600080fd5b50600436106100625760003560e01c806306fdde03146100675780636d67020a14610085578063901ee0b8146100a3578063bc8bc2b4146100bf578063e1e29558146100f3578063e34f12211461010f575b600080fd5b61006f61012b565b60405161007c91906109c2565b60405180910390f35b61008d6101b9565b60405161009a91906109fd565b60405180910390f35b6100bd60048036038101906100b89190610b8d565b6101bf565b005b6100d960048036038101906100d49190610be9565b6103c3565b6040516100ea959493929190610c72565b60405180910390f35b61010d60048036038101906101089190610be9565b6104ae565b005b61012960048036038101906101249190610ccc565b6106ef565b005b6000805461013890610d44565b80601f016020809104026020016040519081016040528092919081815260200182805461016490610d44565b80156101b15780601f10610186576101008083540402835291602001916101b1565b820191906000526020600020905b81548152906001019060200180831161019457829003601f168201915b505050505081565b60015481565b60008151116101cd57600080fd5b6000600260008481526020019081526020016000206040518060a00160405290816000820154815260200160018201805461020790610d44565b80601f016020809104026020016040519081016040528092919081815260200182805461023390610d44565b80156102805780601f1061025557610100808354040283529160200191610280565b820191906000526020600020905b81548152906001019060200180831161026357829003601f168201915b50505050508152602001600282015481526020016003820160009054906101000a900473ffffffffffffffffffffffffffffffffffffffff1673ffffffffffffffffffffffffffffffffffffffff1673ffffffffffffffffffffffffffffffffffffffff1681526020016003820160149054906101000a900460ff16151515158152505090508181602001819052508060026000858152602001908152602001600020600082015181600001556020820151816001019080519060200190610349929190610886565b506040820151816002015560608201518160030160006101000a81548173ffffffffffffffffffffffffffffffffffffffff021916908373ffffffffffffffffffffffffffffffffffffffff16021790555060808201518160030160146101000a81548160ff021916908315150217905550905050505050565b60026020528060005260406000206000915090508060000154908060010180546103ec90610d44565b80601f016020809104026020016040519081016040528092919081815260200182805461041890610d44565b80156104655780601f1061043a57610100808354040283529160200191610465565b820191906000526020600020905b81548152906001019060200180831161044857829003601f168201915b5050505050908060020154908060030160009054906101000a900473ffffffffffffffffffffffffffffffffffffffff16908060030160149054906101000a900460ff16905085565b6000600260008381526020019081526020016000206040518060a0016040529081600082015481526020016001820180546104e890610d44565b80601f016020809104026020016040519081016040528092919081815260200182805461051490610d44565b80156105615780601f1061053657610100808354040283529160200191610561565b820191906000526020600020905b81548152906001019060200180831161054457829003601f168201915b50505050508152602001600282015481526020016003820160009054906101000a900473ffffffffffffffffffffffffffffffffffffffff1673ffffffffffffffffffffffffffffffffffffffff1673ffffffffffffffffffffffffffffffffffffffff1681526020016003820160149054906101000a900460ff161515151581525050905060018160800190151590811515815250508060026000848152602001908152602001600020600082015181600001556020820151816001019080519060200190610632929190610886565b506040820151816002015560608201518160030160006101000a81548173ffffffffffffffffffffffffffffffffffffffff021916908373ffffffffffffffffffffffffffffffffffffffff16021790555060808201518160030160146101000a81548160ff0219169083151502179055509050507f95d0099a9b34dc7e9e6b06a0cab9c0adb86d4a717465edaeffbadc8997642967828260200151423360016040516106e3959493929190610c72565b60405180910390a15050565b60008151116106fd57600080fd5b600073ffffffffffffffffffffffffffffffffffffffff163373ffffffffffffffffffffffffffffffffffffffff16141561073757600080fd5b6040518060a0016040528060015481526020018281526020014281526020013373ffffffffffffffffffffffffffffffffffffffff168152602001600015158152506002600060015481526020019081526020016000206000820151816000015560208201518160010190805190602001906107b4929190610886565b506040820151816002015560608201518160030160006101000a81548173ffffffffffffffffffffffffffffffffffffffff021916908373ffffffffffffffffffffffffffffffffffffffff16021790555060808201518160030160146101000a81548160ff0219169083151502179055509050507f1abcaa0491a9095605c3010ca94d6f00fa0b1363ddfa4b20a9e0ff0afa82dff76001548242336000604051610863959493929190610c72565b60405180910390a16001600081548092919061087e90610da5565b919050555050565b82805461089290610d44565b90600052602060002090601f0160209004810192826108b457600085556108fb565b82601f106108cd57805160ff19168380011785556108fb565b828001600101855582156108fb579182015b828111156108fa5782518255916020019190600101906108df565b5b509050610908919061090c565b5090565b5b8082111561092557600081600090555060010161090d565b5090565b600081519050919050565b600082825260208201905092915050565b60005b83811015610963578082015181840152602081019050610948565b83811115610972576000848401525b50505050565b6000601f19601f8301169050919050565b600061099482610929565b61099e8185610934565b93506109ae818560208601610945565b6109b781610978565b840191505092915050565b600060208201905081810360008301526109dc8184610989565b905092915050565b6000819050919050565b6109f7816109e4565b82525050565b6000602082019050610a1260008301846109ee565b92915050565b6000604051905090565b600080fd5b600080fd5b610a35816109e4565b8114610a4057600080fd5b50565b600081359050610a5281610a2c565b92915050565b600080fd5b600080fd5b7f4e487b7100000000000000000000000000000000000000000000000000000000600052604160045260246000fd5b610a9a82610978565b810181811067ffffffffffffffff82111715610ab957610ab8610a62565b5b80604052505050565b6000610acc610a18565b9050610ad88282610a91565b919050565b600067ffffffffffffffff821115610af857610af7610a62565b5b610b0182610978565b9050602081019050919050565b82818337600083830152505050565b6000610b30610b2b84610add565b610ac2565b905082815260208101848484011115610b4c57610b4b610a5d565b5b610b57848285610b0e565b509392505050565b600082601f830112610b7457610b73610a58565b5b8135610b84848260208601610b1d565b91505092915050565b60008060408385031215610ba457610ba3610a22565b5b6000610bb285828601610a43565b925050602083013567ffffffffffffffff811115610bd357610bd2610a27565b5b610bdf85828601610b5f565b9150509250929050565b600060208284031215610bff57610bfe610a22565b5b6000610c0d84828501610a43565b91505092915050565b600073ffffffffffffffffffffffffffffffffffffffff82169050919050565b6000610c4182610c16565b9050919050565b610c5181610c36565b82525050565b60008115159050919050565b610c6c81610c57565b82525050565b600060a082019050610c8760008301886109ee565b8181036020830152610c998187610989565b9050610ca860408301866109ee565b610cb56060830185610c48565b610cc26080830184610c63565b9695505050505050565b600060208284031215610ce257610ce1610a22565b5b600082013567ffffffffffffffff811115610d0057610cff610a27565b5b610d0c84828501610b5f565b91505092915050565b7f4e487b7100000000000000000000000000000000000000000000000000000000600052602260045260246000fd5b60006002820490506001821680610d5c57607f821691505b60208210811415610d7057610d6f610d15565b5b50919050565b7f4e487b7100000000000000000000000000000000000000000000000000000000600052601160045260246000fd5b6000610db0826109e4565b91507fffffffffffffffffffffffffffffffffffffffffffffffffffffffffffffffff821415610de357610de2610d76565b5b60018201905091905056fea264697066735822122070f4aeac285a95e0068f18cd639fd8f54a6c454e8e6f9d92945d8011eb2c0c6e64736f6c634300080b0033",
  "immutableReferences": {},
  "source": "// SPDX-License-Identifier: MIT\r\npragma solidity >=0.4.21 < 0.9.0;\r\n\r\n\r\ncontract TODO{\r\n    string public name=\"Decentralized Todo App\";\r\n    uint public TodoCount=1;\r\n\r\n    struct Todo{\r\n        uint id;\r\n        string text;\r\n        uint date;\r\n        address author;\r\n        bool done;\r\n    }\r\n\r\n    mapping(uint=>Todo) public todos;\r\n\r\n    event TodoCreated(\r\n        uint id,\r\n        string text,\r\n        uint date,\r\n        address author,\r\n        bool done\r\n    );\r\n    event TodoDone(\r\n        uint id,\r\n        string text,\r\n        uint date,\r\n        address author,\r\n        bool done\r\n    );\r\n\r\n    function createTodo(string memory _text)public{\r\n        require(bytes(_text).length > 0);\r\n        require(msg.sender != address(0x0));\r\n\r\n        todos[TodoCount]=Todo(TodoCount,_text,block.timestamp,msg.sender,false);\r\n        emit TodoCreated(TodoCount,_text,block.timestamp,msg.sender,false);\r\n        TodoCount++;\r\n    }\r\n\r\n    function completeTask(uint _id) public{\r\n        Todo memory todo=todos[_id];\r\n        todo.done=true;\r\n        todos[_id]=todo;\r\n        emit TodoDone(_id,todo.text,block.timestamp,msg.sender,true);\r\n    }\r\n\r\n    function editTodo(uint _id,string memory _text) public {\r\n        require(bytes(_text).length > 0);\r\n        Todo memory todo=todos[_id];\r\n        todo.text=_text;\r\n        todos[_id]=todo;\r\n    }\r\n}",
  "sourcePath": "C:\\Users\\ACT\\OneDrive\\Desktop\\blockchain_long_journey\\project_five\\contracts\\TODO.sol",
  "compiler": {
    "name": "solc",
    "version": "0.8.11+commit.d7f03943.Emscripten.clang"
  },
  "schemaVersion": "3.4.4",
  "updatedAt": "2022-02-28T17:05:11.500Z",
  "networkType": "ethereum",
  "devdoc": {
    "kind": "dev",
    "methods": {},
    "version": 1
  },
  "userdoc": {
    "kind": "user",
    "methods": {},
    "version": 1
  }
}